{"abi":[{"type":"constructor","inputs":[],"stateMutability":"nonpayable"},{"type":"function","name":"balanceOf","inputs":[{"name":"","type":"address","internalType":"address"}],"outputs":[{"name":"","type":"uint256","internalType":"uint256"}],"stateMutability":"view"},{"type":"function","name":"burn","inputs":[{"name":"amount","type":"uint256","internalType":"uint256"}],"outputs":[],"stateMutability":"nonpayable"},{"type":"function","name":"burnForBridge","inputs":[{"name":"amount","type":"uint256","internalType":"uint256"},{"name":"destinationChain","type":"string","internalType":"string"}],"outputs":[],"stateMutability":"nonpayable"},{"type":"function","name":"decimals","inputs":[],"outputs":[{"name":"","type":"uint8","internalType":"uint8"}],"stateMutability":"view"},{"type":"function","name":"mint","inputs":[{"name":"to","type":"address","internalType":"address"},{"name":"amount","type":"uint256","internalType":"uint256"}],"outputs":[],"stateMutability":"nonpayable"},{"type":"function","name":"mintForBridge","inputs":[{"name":"to","type":"address","internalType":"address"},{"name":"amount","type":"uint256","internalType":"uint256"},{"name":"sourceChain","type":"string","internalType":"string"}],"outputs":[],"stateMutability":"nonpayable"},{"type":"function","name":"minters","inputs":[{"name":"","type":"address","internalType":"address"}],"outputs":[{"name":"","type":"bool","internalType":"bool"}],"stateMutability":"view"},{"type":"function","name":"name","inputs":[],"outputs":[{"name":"","type":"string","internalType":"string"}],"stateMutability":"view"},{"type":"function","name":"owner","inputs":[],"outputs":[{"name":"","type":"address","internalType":"address"}],"stateMutability":"view"},{"type":"function","name":"setMinter","inputs":[{"name":"minter","type":"address","internalType":"address"},{"name":"status","type":"bool","internalType":"bool"}],"outputs":[],"stateMutability":"nonpayable"},{"type":"function","name":"symbol","inputs":[],"outputs":[{"name":"","type":"string","internalType":"string"}],"stateMutability":"view"},{"type":"function","name":"totalSupply","inputs":[],"outputs":[{"name":"","type":"uint256","internalType":"uint256"}],"stateMutability":"view"},{"type":"event","name":"TokensBurned","inputs":[{"name":"burner","type":"address","indexed":true,"internalType":"address"},{"name":"amount","type":"uint256","indexed":false,"internalType":"uint256"},{"name":"destinationChain","type":"string","indexed":false,"internalType":"string"}],"anonymous":false},{"type":"event","name":"TokensMinted","inputs":[{"name":"minter","type":"address","indexed":true,"internalType":"address"},{"name":"to","type":"address","indexed":true,"internalType":"address"},{"name":"amount","type":"uint256","indexed":false,"internalType":"uint256"},{"name":"sourceChain","type":"string","indexed":false,"internalType":"string"}],"anonymous":false}],"bytecode":{"object":"0x60c0604052600960809081526824a12a102a37b5b2b760b91b60a0525f906100279082610133565b5060408051808201909152600381526212509560ea1b602082015260019061004f9082610133565b506002805460ff19166012179055348015610068575f5ffd5b50600480546001600160a01b031916339081179091555f908152600660205260409020805460ff191660011790556101ed565b634e487b7160e01b5f52604160045260245ffd5b600181811c908216806100c357607f821691505b6020821081036100e157634e487b7160e01b5f52602260045260245ffd5b50919050565b601f82111561012e57805f5260205f20601f840160051c8101602085101561010c5750805b601f840160051c820191505b8181101561012b575f8155600101610118565b50505b505050565b81516001600160401b0381111561014c5761014c61009b565b6101608161015a84546100af565b846100e7565b6020601f821160018114610192575f831561017b5750848201515b5f19600385901b1c1916600184901b17845561012b565b5f84815260208120601f198516915b828110156101c157878501518255602094850194600190920191016101a1565b50848210156101de57868401515f19600387901b60f8161c191681555b50505050600190811b01905550565b61089a806101fa5f395ff3fe608060405234801561000f575f5ffd5b50600436106100b1575f3560e01c806370a082311161006e57806370a08231146101445780638da5cb5b1461016357806395d89b411461018e578063cf456ae714610196578063d70d7c78146101a9578063f46eccc4146101bc575f5ffd5b806306fdde03146100b557806314a2821f146100d357806318160ddd146100e8578063313ce567146100ff57806340c10f191461011e57806342966c6814610131575b5f5ffd5b6100bd6101ee565b6040516100ca91906105ec565b60405180910390f35b6100e66100e1366004610681565b610279565b005b6100f160035481565b6040519081526020016100ca565b60025461010c9060ff1681565b60405160ff90911681526020016100ca565b6100e661012c3660046106d7565b610336565b6100e661013f3660046106ff565b610485565b6100f1610152366004610716565b60056020525f908152604090205481565b600454610176906001600160a01b031681565b6040516001600160a01b0390911681526020016100ca565b6100bd610518565b6100e66101a4366004610736565b610525565b6100e66101b736600461076f565b610599565b6101de6101ca366004610716565b60066020525f908152604090205460ff1681565b60405190151581526020016100ca565b5f80546101fa906107b7565b80601f0160208091040260200160405190810160405280929190818152602001828054610226906107b7565b80156102715780601f1061024857610100808354040283529160200191610271565b820191905f5260205f20905b81548152906001019060200180831161025457829003601f168201915b505050505081565b335f9081526006602052604090205460ff166102d75760405162461bcd60e51b81526020600482015260186024820152772737ba1030b71030baba3437b934bd32b21036b4b73a32b960411b60448201526064015b60405180910390fd5b6102e18484610336565b836001600160a01b0316336001600160a01b03167fe0110d19dd09efe5f4f4f8ad56551c09a14177cd013b6f7c24ad779a79a2a74e858585604051610328939291906107ef565b60405180910390a350505050565b335f9081526006602052604090205460ff1661038f5760405162461bcd60e51b81526020600482015260186024820152772737ba1030b71030baba3437b934bd32b21036b4b73a32b960411b60448201526064016102ce565b6001600160a01b0382166103d75760405162461bcd60e51b815260206004820152600f60248201526e496e76616c6964206164647265737360881b60448201526064016102ce565b6001600160a01b0382165f90815260056020526040812080548392906103fe908490610838565b925050819055508060035f8282546104169190610838565b90915550506040516001600160a01b0383169033907fe0110d19dd09efe5f4f4f8ad56551c09a14177cd013b6f7c24ad779a79a2a74e9061047990858152604060208201819052600790820152662ab735b737bbb760c91b606082015260800190565b60405180910390a35050565b335f908152600560205260409020548111156104da5760405162461bcd60e51b8152602060048201526014602482015273496e73756666696369656e742062616c616e636560601b60448201526064016102ce565b335f90815260056020526040812080548392906104f8908490610851565b925050819055508060035f8282546105109190610851565b909155505050565b600180546101fa906107b7565b6004546001600160a01b0316331461056f5760405162461bcd60e51b815260206004820152600d60248201526c2737ba103a34329037bbb732b960991b60448201526064016102ce565b6001600160a01b03919091165f908152600660205260409020805460ff1916911515919091179055565b6105a283610485565b336001600160a01b03167ffad31924d655455395c87544c8aa1ffdb5a7505a22a3c2e03f28003b6556a75f8484846040516105df939291906107ef565b60405180910390a2505050565b602081525f82518060208401528060208501604085015e5f604082850101526040601f19601f83011684010191505092915050565b80356001600160a01b0381168114610637575f5ffd5b919050565b5f5f83601f84011261064c575f5ffd5b50813567ffffffffffffffff811115610663575f5ffd5b60208301915083602082850101111561067a575f5ffd5b9250929050565b5f5f5f5f60608587031215610694575f5ffd5b61069d85610621565b935060208501359250604085013567ffffffffffffffff8111156106bf575f5ffd5b6106cb8782880161063c565b95989497509550505050565b5f5f604083850312156106e8575f5ffd5b6106f183610621565b946020939093013593505050565b5f6020828403121561070f575f5ffd5b5035919050565b5f60208284031215610726575f5ffd5b61072f82610621565b9392505050565b5f5f60408385031215610747575f5ffd5b61075083610621565b915060208301358015158114610764575f5ffd5b809150509250929050565b5f5f5f60408486031215610781575f5ffd5b83359250602084013567ffffffffffffffff81111561079e575f5ffd5b6107aa8682870161063c565b9497909650939450505050565b600181811c908216806107cb57607f821691505b6020821081036107e957634e487b7160e01b5f52602260045260245ffd5b50919050565b83815260406020820152816040820152818360608301375f818301606090810191909152601f909201601f1916010192915050565b634e487b7160e01b5f52601160045260245ffd5b8082018082111561084b5761084b610824565b92915050565b8181038181111561084b5761084b61082456fea264697066735822122037e5129af9af818a47d7d8e82745e2a4fa55e86d22dad9b369b361c7612cdd7664736f6c634300081c0033","linkReferences":{}},"methodIdentifiers":{"balanceOf(address)":"70a08231","burn(uint256)":"42966c68","burnForBridge(uint256,string)":"d70d7c78","decimals()":"313ce567","mint(address,uint256)":"40c10f19","mintForBridge(address,uint256,string)":"14a2821f","minters(address)":"f46eccc4","name()":"06fdde03","owner()":"8da5cb5b","setMinter(address,bool)":"cf456ae7","symbol()":"95d89b41","totalSupply()":"18160ddd"},"id":0}